{
  "_format": "hh-sol-artifact-1",
  "contractName": "CrowdFunding",
  "sourceName": "contracts/CrowdFunding.sol",
  "abi": [
    {
      "inputs": [
        {
          "internalType": "uint256",
          "name": "_fundingGoalInWei",
          "type": "uint256"
        },
        {
          "internalType": "uint256",
          "name": "_durationInDays",
          "type": "uint256"
        },
        {
          "internalType": "address",
          "name": "_creator",
          "type": "address"
        }
      ],
      "stateMutability": "nonpayable",
      "type": "constructor"
    },
    {
      "inputs": [],
      "name": "AccessControlBadConfirmation",
      "type": "error"
    },
    {
      "inputs": [
        {
          "internalType": "address",
          "name": "account",
          "type": "address"
        },
        {
          "internalType": "bytes32",
          "name": "neededRole",
          "type": "bytes32"
        }
      ],
      "name": "AccessControlUnauthorizedAccount",
      "type": "error"
    },
    {
      "inputs": [],
      "name": "ReentrancyGuardReentrantCall",
      "type": "error"
    },
    {
      "anonymous": false,
      "inputs": [
        {
          "indexed": true,
          "internalType": "address",
          "name": "contributor",
          "type": "address"
        },
        {
          "indexed": false,
          "internalType": "uint256",
          "name": "amount",
          "type": "uint256"
        },
        {
          "indexed": false,
          "internalType": "uint256",
          "name": "currentTotal",
          "type": "uint256"
        }
      ],
      "name": "Funded",
      "type": "event"
    },
    {
      "anonymous": false,
      "inputs": [
        {
          "indexed": true,
          "internalType": "address",
          "name": "creator",
          "type": "address"
        },
        {
          "indexed": false,
          "internalType": "uint256",
          "name": "amount",
          "type": "uint256"
        }
      ],
      "name": "FundsWithdrawn",
      "type": "event"
    },
    {
      "anonymous": false,
      "inputs": [
        {
          "indexed": false,
          "internalType": "uint256",
          "name": "finalTotal",
          "type": "uint256"
        }
      ],
      "name": "GoalReached",
      "type": "event"
    },
    {
      "anonymous": false,
      "inputs": [
        {
          "indexed": true,
          "internalType": "address",
          "name": "contributor",
          "type": "address"
        },
        {
          "indexed": false,
          "internalType": "uint256",
          "name": "amount",
          "type": "uint256"
        }
      ],
      "name": "RefundIssued",
      "type": "event"
    },
    {
      "anonymous": false,
      "inputs": [
        {
          "indexed": true,
          "internalType": "bytes32",
          "name": "role",
          "type": "bytes32"
        },
        {
          "indexed": true,
          "internalType": "bytes32",
          "name": "previousAdminRole",
          "type": "bytes32"
        },
        {
          "indexed": true,
          "internalType": "bytes32",
          "name": "newAdminRole",
          "type": "bytes32"
        }
      ],
      "name": "RoleAdminChanged",
      "type": "event"
    },
    {
      "anonymous": false,
      "inputs": [
        {
          "indexed": true,
          "internalType": "bytes32",
          "name": "role",
          "type": "bytes32"
        },
        {
          "indexed": true,
          "internalType": "address",
          "name": "account",
          "type": "address"
        },
        {
          "indexed": true,
          "internalType": "address",
          "name": "sender",
          "type": "address"
        }
      ],
      "name": "RoleGranted",
      "type": "event"
    },
    {
      "anonymous": false,
      "inputs": [
        {
          "indexed": true,
          "internalType": "bytes32",
          "name": "role",
          "type": "bytes32"
        },
        {
          "indexed": true,
          "internalType": "address",
          "name": "account",
          "type": "address"
        },
        {
          "indexed": true,
          "internalType": "address",
          "name": "sender",
          "type": "address"
        }
      ],
      "name": "RoleRevoked",
      "type": "event"
    },
    {
      "inputs": [],
      "name": "CREATOR_ROLE",
      "outputs": [
        {
          "internalType": "bytes32",
          "name": "",
          "type": "bytes32"
        }
      ],
      "stateMutability": "view",
      "type": "function"
    },
    {
      "inputs": [],
      "name": "DEFAULT_ADMIN_ROLE",
      "outputs": [
        {
          "internalType": "bytes32",
          "name": "",
          "type": "bytes32"
        }
      ],
      "stateMutability": "view",
      "type": "function"
    },
    {
      "inputs": [],
      "name": "claimRefund",
      "outputs": [],
      "stateMutability": "nonpayable",
      "type": "function"
    },
    {
      "inputs": [
        {
          "internalType": "address",
          "name": "",
          "type": "address"
        }
      ],
      "name": "contributions",
      "outputs": [
        {
          "internalType": "uint256",
          "name": "",
          "type": "uint256"
        }
      ],
      "stateMutability": "view",
      "type": "function"
    },
    {
      "inputs": [],
      "name": "deadline",
      "outputs": [
        {
          "internalType": "uint256",
          "name": "",
          "type": "uint256"
        }
      ],
      "stateMutability": "view",
      "type": "function"
    },
    {
      "inputs": [],
      "name": "fund",
      "outputs": [],
      "stateMutability": "payable",
      "type": "function"
    },
    {
      "inputs": [],
      "name": "fundingGoal",
      "outputs": [
        {
          "internalType": "uint256",
          "name": "",
          "type": "uint256"
        }
      ],
      "stateMutability": "view",
      "type": "function"
    },
    {
      "inputs": [
        {
          "internalType": "bytes32",
          "name": "role",
          "type": "bytes32"
        }
      ],
      "name": "getRoleAdmin",
      "outputs": [
        {
          "internalType": "bytes32",
          "name": "",
          "type": "bytes32"
        }
      ],
      "stateMutability": "view",
      "type": "function"
    },
    {
      "inputs": [],
      "name": "goalReached",
      "outputs": [
        {
          "internalType": "bool",
          "name": "",
          "type": "bool"
        }
      ],
      "stateMutability": "view",
      "type": "function"
    },
    {
      "inputs": [
        {
          "internalType": "bytes32",
          "name": "role",
          "type": "bytes32"
        },
        {
          "internalType": "address",
          "name": "account",
          "type": "address"
        }
      ],
      "name": "grantRole",
      "outputs": [],
      "stateMutability": "nonpayable",
      "type": "function"
    },
    {
      "inputs": [
        {
          "internalType": "bytes32",
          "name": "role",
          "type": "bytes32"
        },
        {
          "internalType": "address",
          "name": "account",
          "type": "address"
        }
      ],
      "name": "hasRole",
      "outputs": [
        {
          "internalType": "bool",
          "name": "",
          "type": "bool"
        }
      ],
      "stateMutability": "view",
      "type": "function"
    },
    {
      "inputs": [],
      "name": "isFinalized",
      "outputs": [
        {
          "internalType": "bool",
          "name": "",
          "type": "bool"
        }
      ],
      "stateMutability": "view",
      "type": "function"
    },
    {
      "inputs": [
        {
          "internalType": "bytes32",
          "name": "role",
          "type": "bytes32"
        },
        {
          "internalType": "address",
          "name": "callerConfirmation",
          "type": "address"
        }
      ],
      "name": "renounceRole",
      "outputs": [],
      "stateMutability": "nonpayable",
      "type": "function"
    },
    {
      "inputs": [
        {
          "internalType": "bytes32",
          "name": "role",
          "type": "bytes32"
        },
        {
          "internalType": "address",
          "name": "account",
          "type": "address"
        }
      ],
      "name": "revokeRole",
      "outputs": [],
      "stateMutability": "nonpayable",
      "type": "function"
    },
    {
      "inputs": [
        {
          "internalType": "bytes4",
          "name": "interfaceId",
          "type": "bytes4"
        }
      ],
      "name": "supportsInterface",
      "outputs": [
        {
          "internalType": "bool",
          "name": "",
          "type": "bool"
        }
      ],
      "stateMutability": "view",
      "type": "function"
    },
    {
      "inputs": [],
      "name": "totalFunds",
      "outputs": [
        {
          "internalType": "uint256",
          "name": "",
          "type": "uint256"
        }
      ],
      "stateMutability": "view",
      "type": "function"
    },
    {
      "inputs": [],
      "name": "withdrawFunds",
      "outputs": [],
      "stateMutability": "nonpayable",
      "type": "function"
    }
  ],
  "bytecode": "0x60a06040523480156200001157600080fd5b5060405162000ef238038062000ef283398101604081905262000034916200016f565b60017f9b779b17422d0df92223018b32b4d1fa46e071723d6817e2486d003becc55f005562000065600033620000c0565b50620000927f828634d95e775031b9ff576b159a8509d3053581a8c9c4d7d86899e0afcd882f82620000c0565b506080839052620000a78262015180620001cd565b620000b39042620001e7565b60015550620001fd915050565b6000828152602081815260408083206001600160a01b038516845290915281205460ff1662000165576000838152602081815260408083206001600160a01b03861684529091529020805460ff191660011790556200011c3390565b6001600160a01b0316826001600160a01b0316847f2f8788117e7eff1d82e926ec794901d17c78024a50270940304540a733656f0d60405160405180910390a450600162000169565b5060005b92915050565b6000806000606084860312156200018557600080fd5b83516020850151604086015191945092506001600160a01b0381168114620001ac57600080fd5b809150509250925092565b634e487b7160e01b600052601160045260246000fd5b8082028115828204841417620001695762000169620001b7565b80820180821115620001695762000169620001b7565b608051610cd2620002206000396000818161022201526109750152610cd26000f3fe6080604052600436106100fe5760003560e01c80637d3d652211610095578063968ed60011610064578063968ed600146102d1578063a217fddf146102e7578063b5545a3c146102fc578063b60d428814610311578063d547741f1461031957600080fd5b80637d3d6522146102445780638aeda25a1461025e5780638d4e40831461029257806391d14854146102b157600080fd5b80632f2ff15d116100d15780632f2ff15d146101a357806336568abe146101c357806342e94c90146101e35780637a3a0e841461021057600080fd5b806301ffc9a71461010357806324600fc314610138578063248a9ca31461014f57806329dcb0cf1461018d575b600080fd5b34801561010f57600080fd5b5061012361011e366004610bae565b610339565b60405190151581526020015b60405180910390f35b34801561014457600080fd5b5061014d610370565b005b34801561015b57600080fd5b5061017f61016a366004610bdf565b60009081526020819052604090206001015490565b60405190815260200161012f565b34801561019957600080fd5b5061017f60015481565b3480156101af57600080fd5b5061014d6101be366004610c14565b6105a8565b3480156101cf57600080fd5b5061014d6101de366004610c14565b6105d3565b3480156101ef57600080fd5b5061017f6101fe366004610c40565b60046020526000908152604090205481565b34801561021c57600080fd5b5061017f7f000000000000000000000000000000000000000000000000000000000000000081565b34801561025057600080fd5b506003546101239060ff1681565b34801561026a57600080fd5b5061017f7f828634d95e775031b9ff576b159a8509d3053581a8c9c4d7d86899e0afcd882f81565b34801561029e57600080fd5b5060035461012390610100900460ff1681565b3480156102bd57600080fd5b506101236102cc366004610c14565b61060b565b3480156102dd57600080fd5b5061017f60025481565b3480156102f357600080fd5b5061017f600081565b34801561030857600080fd5b5061014d610634565b61014d610836565b34801561032557600080fd5b5061014d610334366004610c14565b6109f9565b60006001600160e01b03198216637965db0b60e01b148061036a57506301ffc9a760e01b6001600160e01b03198316145b92915050565b7f828634d95e775031b9ff576b159a8509d3053581a8c9c4d7d86899e0afcd882f61039a81610a1e565b6103a2610a28565b6001544210156103f55760405162461bcd60e51b81526020600482015260196024820152784572726f723a2043616d706169676e2069732061637469766560381b60448201526064015b60405180910390fd5b60035460ff166104515760405162461bcd60e51b815260206004820152602160248201527f43616e6e6f742077697468647261773a20476f616c206e6f74207265616368656044820152601960fa1b60648201526084016103ec565b600354610100900460ff16156104b45760405162461bcd60e51b815260206004820152602260248201527f43616e6e6f742077697468647261773a20416c72656164792066696e616c697a604482015261195960f21b60648201526084016103ec565b6003805461ff00191661010017905560028054600091829055604051909190339083908381818185875af1925050503d806000811461050f576040519150601f19603f3d011682016040523d82523d6000602084013e610514565b606091505b50509050806105575760405162461bcd60e51b815260206004820152600f60248201526e151c985b9cd9995c8819985a5b1959608a1b60448201526064016103ec565b60405182815233907feaff4b37086828766ad3268786972c0cd24259d4c87a80f9d3963a3c3d999b0d9060200160405180910390a250506105a56001600080516020610c7d83398151915255565b50565b6000828152602081905260409020600101546105c381610a1e565b6105cd8383610a44565b50505050565b6001600160a01b03811633146105fc5760405163334bd91960e11b815260040160405180910390fd5b6106068282610ad6565b505050565b6000918252602082815260408084206001600160a01b0393909316845291905290205460ff1690565b61063c610a28565b60015442101561068a5760405162461bcd60e51b81526020600482015260196024820152784572726f723a2043616d706169676e2069732061637469766560381b60448201526064016103ec565b60035460ff16156106e95760405162461bcd60e51b8152602060048201526024808201527f526566756e6420756e617661696c61626c653a20476f616c207761732072656160448201526318da195960e21b60648201526084016103ec565b33600090815260046020526040902054806107465760405162461bcd60e51b815260206004820152601d60248201527f4572726f723a204e6f20636f6e747269627574696f6e7320666f756e6400000060448201526064016103ec565b336000818152600460205260408082208290555190919083908381818185875af1925050503d8060008114610797576040519150601f19603f3d011682016040523d82523d6000602084013e61079c565b606091505b50509050806107e65760405162461bcd60e51b81526020600482015260166024820152751499599d5b99081d1c985b9cd9995c8819985a5b195960521b60448201526064016103ec565b60405182815233907fa171b6942063c6f2800ce40a780edce37baa2b618571b11eedd1e69e626e7d769060200160405180910390a250506108346001600080516020610c7d83398151915255565b565b60015442106108935760405162461bcd60e51b815260206004820152602360248201527f4572726f723a2043616d706169676e20646561646c696e6520686173207061736044820152621cd95960ea1b60648201526084016103ec565b600034116108f25760405162461bcd60e51b815260206004820152602660248201527f436f6e747269627574696f6e206d7573742062652067726561746572207468616044820152656e207a65726f60d01b60648201526084016103ec565b3360009081526004602052604081208054349290610911908490610c5b565b92505081905550346002600082825461092a9190610c5b565b909155505060025460405133917fcd909ec339185c4598a4096e174308fbdf136d117f230960f873a2f2e81f63af9161096b91348252602082015260400190565b60405180910390a27f0000000000000000000000000000000000000000000000000000000000000000600254101580156109a8575060035460ff16155b15610834576003805460ff191660011790556002546040517ffbfd8ab7c24300fa9888cd721c8565a7da56759384781283684dcf7c7c4a846b916109ef9190815260200190565b60405180910390a1565b600082815260208190526040902060010154610a1481610a1e565b6105cd8383610ad6565b6105a58133610b41565b610a30610b7e565b6002600080516020610c7d83398151915255565b6000610a50838361060b565b610ace576000838152602081815260408083206001600160a01b03861684529091529020805460ff19166001179055610a863390565b6001600160a01b0316826001600160a01b0316847f2f8788117e7eff1d82e926ec794901d17c78024a50270940304540a733656f0d60405160405180910390a450600161036a565b50600061036a565b6000610ae2838361060b565b15610ace576000838152602081815260408083206001600160a01b0386168085529252808320805460ff1916905551339286917ff6391f5c32d9c69d2a47ea670b442974b53935d1edc7fd64eb21e047a839171b9190a450600161036a565b610b4b828261060b565b610b7a5760405163e2517d3f60e01b81526001600160a01b0382166004820152602481018390526044016103ec565b5050565b600080516020610c7d8339815191525460020361083457604051633ee5aeb560e01b815260040160405180910390fd5b600060208284031215610bc057600080fd5b81356001600160e01b031981168114610bd857600080fd5b9392505050565b600060208284031215610bf157600080fd5b5035919050565b80356001600160a01b0381168114610c0f57600080fd5b919050565b60008060408385031215610c2757600080fd5b82359150610c3760208401610bf8565b90509250929050565b600060208284031215610c5257600080fd5b610bd882610bf8565b8082018082111561036a57634e487b7160e01b600052601160045260246000fdfe9b779b17422d0df92223018b32b4d1fa46e071723d6817e2486d003becc55f00a264697066735822122064ad6451b8f60feb8b9a58316cfdd5aa566ea294bfc30513e6e14945fe81a8a864736f6c63430008140033",
  "linkReferences": {},
  "deployedLinkReferences": {}
}